{
  "contractName": "thesis",
  "abi": [
    {
      "inputs": [
        {
          "internalType": "string",
          "name": "givenName",
          "type": "string"
        },
        {
          "internalType": "string",
          "name": "givenSymbol",
          "type": "string"
        }
      ],
      "stateMutability": "nonpayable",
      "type": "constructor"
    },
    {
      "anonymous": false,
      "inputs": [
        {
          "indexed": true,
          "internalType": "address",
          "name": "_owner",
          "type": "address"
        },
        {
          "indexed": true,
          "internalType": "address",
          "name": "_spender",
          "type": "address"
        },
        {
          "indexed": false,
          "internalType": "uint256",
          "name": "_value",
          "type": "uint256"
        }
      ],
      "name": "Approval",
      "type": "event"
    },
    {
      "anonymous": false,
      "inputs": [
        {
          "indexed": true,
          "internalType": "address",
          "name": "previousOwner",
          "type": "address"
        },
        {
          "indexed": true,
          "internalType": "address",
          "name": "newOwner",
          "type": "address"
        }
      ],
      "name": "OwnershipTransferred",
      "type": "event"
    },
    {
      "anonymous": false,
      "inputs": [
        {
          "indexed": true,
          "internalType": "address",
          "name": "_from",
          "type": "address"
        },
        {
          "indexed": true,
          "internalType": "address",
          "name": "_to",
          "type": "address"
        },
        {
          "indexed": false,
          "internalType": "uint256",
          "name": "_value",
          "type": "uint256"
        }
      ],
      "name": "Transfer",
      "type": "event"
    },
    {
      "inputs": [],
      "name": "owner",
      "outputs": [
        {
          "internalType": "address",
          "name": "",
          "type": "address"
        }
      ],
      "stateMutability": "view",
      "type": "function",
      "constant": true
    },
    {
      "inputs": [],
      "name": "renounceOwnership",
      "outputs": [],
      "stateMutability": "nonpayable",
      "type": "function"
    },
    {
      "inputs": [
        {
          "internalType": "address",
          "name": "newOwner",
          "type": "address"
        }
      ],
      "name": "transferOwnership",
      "outputs": [],
      "stateMutability": "nonpayable",
      "type": "function"
    },
    {
      "inputs": [],
      "name": "name",
      "outputs": [
        {
          "internalType": "string",
          "name": "",
          "type": "string"
        }
      ],
      "stateMutability": "view",
      "type": "function",
      "constant": true
    },
    {
      "inputs": [],
      "name": "symbol",
      "outputs": [
        {
          "internalType": "string",
          "name": "",
          "type": "string"
        }
      ],
      "stateMutability": "view",
      "type": "function",
      "constant": true
    },
    {
      "inputs": [],
      "name": "decimals",
      "outputs": [
        {
          "internalType": "uint8",
          "name": "",
          "type": "uint8"
        }
      ],
      "stateMutability": "view",
      "type": "function",
      "constant": true
    },
    {
      "inputs": [],
      "name": "totalSupply",
      "outputs": [
        {
          "internalType": "uint256",
          "name": "",
          "type": "uint256"
        }
      ],
      "stateMutability": "view",
      "type": "function",
      "constant": true
    },
    {
      "inputs": [
        {
          "internalType": "address",
          "name": "owner",
          "type": "address"
        }
      ],
      "name": "balanceOf",
      "outputs": [
        {
          "internalType": "uint256",
          "name": "",
          "type": "uint256"
        }
      ],
      "stateMutability": "view",
      "type": "function",
      "constant": true
    },
    {
      "inputs": [
        {
          "internalType": "address",
          "name": "owner",
          "type": "address"
        },
        {
          "internalType": "address",
          "name": "spender",
          "type": "address"
        }
      ],
      "name": "allowance",
      "outputs": [
        {
          "internalType": "uint256",
          "name": "",
          "type": "uint256"
        }
      ],
      "stateMutability": "view",
      "type": "function",
      "constant": true
    },
    {
      "inputs": [
        {
          "internalType": "address",
          "name": "to",
          "type": "address"
        },
        {
          "internalType": "uint256",
          "name": "value",
          "type": "uint256"
        }
      ],
      "name": "transfer",
      "outputs": [
        {
          "internalType": "bool",
          "name": "",
          "type": "bool"
        }
      ],
      "stateMutability": "nonpayable",
      "type": "function"
    },
    {
      "inputs": [
        {
          "internalType": "address",
          "name": "from",
          "type": "address"
        },
        {
          "internalType": "address",
          "name": "to",
          "type": "address"
        },
        {
          "internalType": "uint256",
          "name": "value",
          "type": "uint256"
        }
      ],
      "name": "transferFrom",
      "outputs": [
        {
          "internalType": "bool",
          "name": "",
          "type": "bool"
        }
      ],
      "stateMutability": "nonpayable",
      "type": "function"
    },
    {
      "inputs": [
        {
          "internalType": "address",
          "name": "spender",
          "type": "address"
        },
        {
          "internalType": "uint256",
          "name": "value",
          "type": "uint256"
        }
      ],
      "name": "approve",
      "outputs": [
        {
          "internalType": "bool",
          "name": "",
          "type": "bool"
        }
      ],
      "stateMutability": "nonpayable",
      "type": "function"
    },
    {
      "inputs": [
        {
          "internalType": "address",
          "name": "owner",
          "type": "address"
        },
        {
          "internalType": "address",
          "name": "spender",
          "type": "address"
        },
        {
          "internalType": "int256",
          "name": "value",
          "type": "int256"
        }
      ],
      "name": "adjustAllowed",
      "outputs": [
        {
          "internalType": "bool",
          "name": "",
          "type": "bool"
        }
      ],
      "stateMutability": "nonpayable",
      "type": "function"
    },
    {
      "inputs": [
        {
          "internalType": "address",
          "name": "target",
          "type": "address"
        },
        {
          "internalType": "uint256",
          "name": "value",
          "type": "uint256"
        }
      ],
      "name": "mint",
      "outputs": [
        {
          "internalType": "bool",
          "name": "",
          "type": "bool"
        }
      ],
      "stateMutability": "nonpayable",
      "type": "function"
    },
    {
      "inputs": [
        {
          "internalType": "address",
          "name": "from",
          "type": "address"
        },
        {
          "internalType": "uint256",
          "name": "value",
          "type": "uint256"
        }
      ],
      "name": "burn",
      "outputs": [
        {
          "internalType": "bool",
          "name": "",
          "type": "bool"
        }
      ],
      "stateMutability": "nonpayable",
      "type": "function"
    },
    {
      "inputs": [
        {
          "internalType": "address",
          "name": "from",
          "type": "address"
        },
        {
          "internalType": "address",
          "name": "to",
          "type": "address"
        },
        {
          "internalType": "uint256",
          "name": "value",
          "type": "uint256"
        }
      ],
      "name": "executeTransfer",
      "outputs": [],
      "stateMutability": "nonpayable",
      "type": "function"
    },
    {
      "inputs": [
        {
          "internalType": "address",
          "name": "owner",
          "type": "address"
        },
        {
          "internalType": "address",
          "name": "spender",
          "type": "address"
        },
        {
          "internalType": "address",
          "name": "to",
          "type": "address"
        },
        {
          "internalType": "uint256",
          "name": "value",
          "type": "uint256"
        }
      ],
      "name": "executeTransferFrom",
      "outputs": [],
      "stateMutability": "nonpayable",
      "type": "function"
    },
    {
      "inputs": [
        {
          "internalType": "address",
          "name": "owner",
          "type": "address"
        },
        {
          "internalType": "address",
          "name": "spender",
          "type": "address"
        },
        {
          "internalType": "uint256",
          "name": "value",
          "type": "uint256"
        }
      ],
      "name": "executeApprove",
      "outputs": [],
      "stateMutability": "nonpayable",
      "type": "function"
    },
    {
      "inputs": [
        {
          "internalType": "uint256",
          "name": "deviceID",
          "type": "uint256"
        }
      ],
      "name": "registeredDevices",
      "outputs": [
        {
          "internalType": "address",
          "name": "",
          "type": "address"
        }
      ],
      "stateMutability": "view",
      "type": "function",
      "constant": true
    },
    {
      "inputs": [
        {
          "internalType": "address",
          "name": "owner",
          "type": "address"
        },
        {
          "internalType": "uint256",
          "name": "deviceID",
          "type": "uint256"
        }
      ],
      "name": "registerDevice",
      "outputs": [],
      "stateMutability": "nonpayable",
      "type": "function"
    },
    {
      "inputs": [
        {
          "internalType": "uint256",
          "name": "deviceID",
          "type": "uint256"
        },
        {
          "internalType": "address",
          "name": "from",
          "type": "address"
        },
        {
          "internalType": "uint256",
          "name": "amount",
          "type": "uint256"
        }
      ],
      "name": "transferFromDeviceID",
      "outputs": [],
      "stateMutability": "nonpayable",
      "type": "function"
    }
  ],
  "bytecode": "0x60806040523480156200001157600080fd5b506040516200243a3803806200243a8339818101604052810190620000379190620003aa565b620000576200004b6200009160201b60201c565b6200009960201b60201c565b81600590805190602001906200006f9291906200015d565b508060069080519060200190620000889291906200015d565b50505062000493565b600033905090565b60008060009054906101000a900473ffffffffffffffffffffffffffffffffffffffff169050816000806101000a81548173ffffffffffffffffffffffffffffffffffffffff021916908373ffffffffffffffffffffffffffffffffffffffff1602179055508173ffffffffffffffffffffffffffffffffffffffff168173ffffffffffffffffffffffffffffffffffffffff167f8be0079c531659141344cd1fd0a4f28419497f9722a3daafe3b4186f6b6457e060405160405180910390a35050565b8280546200016b906200045e565b90600052602060002090601f0160209004810192826200018f5760008555620001db565b82601f10620001aa57805160ff1916838001178555620001db565b82800160010185558215620001db579182015b82811115620001da578251825591602001919060010190620001bd565b5b509050620001ea9190620001ee565b5090565b5b8082111562000209576000816000905550600101620001ef565b5090565b6000604051905090565b600080fd5b600080fd5b600080fd5b600080fd5b6000601f19601f8301169050919050565b7f4e487b7100000000000000000000000000000000000000000000000000000000600052604160045260246000fd5b62000276826200022b565b810181811067ffffffffffffffff821117156200029857620002976200023c565b5b80604052505050565b6000620002ad6200020d565b9050620002bb82826200026b565b919050565b600067ffffffffffffffff821115620002de57620002dd6200023c565b5b620002e9826200022b565b9050602081019050919050565b60005b8381101562000316578082015181840152602081019050620002f9565b8381111562000326576000848401525b50505050565b6000620003436200033d84620002c0565b620002a1565b90508281526020810184848401111562000362576200036162000226565b5b6200036f848285620002f6565b509392505050565b600082601f8301126200038f576200038e62000221565b5b8151620003a18482602086016200032c565b91505092915050565b60008060408385031215620003c457620003c362000217565b5b600083015167ffffffffffffffff811115620003e557620003e46200021c565b5b620003f38582860162000377565b925050602083015167ffffffffffffffff8111156200041757620004166200021c565b5b620004258582860162000377565b9150509250929050565b7f4e487b7100000000000000000000000000000000000000000000000000000000600052602260045260246000fd5b600060028204905060018216806200047757607f821691505b6020821081036200048d576200048c6200042f565b5b50919050565b611f9780620004a36000396000f3fe608060405234801561001057600080fd5b50600436106101375760003560e01c80637def10aa116100b8578063a1d49ce51161007c578063a1d49ce514610350578063a9059cbb1461036c578063cb9e870b1461039c578063dd62ed3e146103cc578063e58ef8a8146103fc578063f2fde38b1461041857610137565b80637def10aa146102ac5780638da5cb5b146102c857806395d89b41146102e657806399bc7416146103045780639dc29fac1461032057610137565b806340c10f19116100ff57806340c10f19146101f657806343386ed0146102265780634434fce61461025657806370a0823114610272578063715018a6146102a257610137565b806306fdde031461013c578063095ea7b31461015a57806318160ddd1461018a57806323b872dd146101a8578063313ce567146101d8575b600080fd5b610144610434565b604051610151919061161c565b60405180910390f35b610174600480360381019061016f91906116d7565b6104c6565b6040516101819190611732565b60405180910390f35b6101926104e2565b60405161019f919061175c565b60405180910390f35b6101c260048036038101906101bd9190611777565b6104ec565b6040516101cf9190611732565b60405180910390f35b6101e061050a565b6040516101ed91906117e6565b60405180910390f35b610210600480360381019061020b91906116d7565b610513565b60405161021d9190611732565b60405180910390f35b610240600480360381019061023b9190611801565b61066b565b60405161024d919061183d565b60405180910390f35b610270600480360381019061026b9190611858565b6106a8565b005b61028c600480360381019061028791906118ab565b6106f9565b604051610299919061175c565b60405180910390f35b6102aa610742565b005b6102c660048036038101906102c191906116d7565b610756565b005b6102d06107b4565b6040516102dd919061183d565b60405180910390f35b6102ee6107dd565b6040516102fb919061161c565b60405180910390f35b61031e600480360381019061031991906118d8565b61086f565b005b61033a600480360381019061033591906116d7565b61095c565b6040516103479190611732565b60405180910390f35b61036a60048036038101906103659190611777565b610b36565b005b610386600480360381019061038191906116d7565b610d83565b6040516103939190611732565b60405180910390f35b6103b660048036038101906103b19190611975565b610d9f565b6040516103c39190611732565b60405180910390f35b6103e660048036038101906103e191906119c8565b6110b1565b6040516103f3919061175c565b60405180910390f35b61041660048036038101906104119190611777565b611138565b005b610432600480360381019061042d91906118ab565b6113b6565b005b60606005805461044390611a37565b80601f016020809104026020016040519081016040528092919081815260200182805461046f90611a37565b80156104bc5780601f10610491576101008083540402835291602001916104bc565b820191906000526020600020905b81548152906001019060200180831161049f57829003601f168201915b5050505050905090565b6000803390506104d7818585610b36565b600191505092915050565b6000600454905090565b6000803390506104fe8582868661086f565b60019150509392505050565b60006012905090565b600061051d611439565b600073ffffffffffffffffffffffffffffffffffffffff168373ffffffffffffffffffffffffffffffffffffffff160361058c576040517f08c379a000000000000000000000000000000000000000000000000000000000815260040161058390611ab4565b60405180910390fd5b81600160008573ffffffffffffffffffffffffffffffffffffffff1673ffffffffffffffffffffffffffffffffffffffff16815260200190815260200160002060008282546105db9190611b03565b9250508190555081600460008282546105f49190611b03565b925050819055508273ffffffffffffffffffffffffffffffffffffffff16600073ffffffffffffffffffffffffffffffffffffffff167fddf252ad1be2c89b69c2b068fc378daa952ba7f163c4a11628f55a4df523b3ef84604051610659919061175c565b60405180910390a36001905092915050565b60006003600083815260200190815260200160002060009054906101000a900473ffffffffffffffffffffffffffffffffffffffff169050919050565b6106b0611439565b60006003600085815260200190815260200160002060009054906101000a900473ffffffffffffffffffffffffffffffffffffffff1690506106f3838284611138565b50505050565b6000600160008373ffffffffffffffffffffffffffffffffffffffff1673ffffffffffffffffffffffffffffffffffffffff168152602001908152602001600020549050919050565b61074a611439565b61075460006114b7565b565b61075e611439565b816003600083815260200190815260200160002060006101000a81548173ffffffffffffffffffffffffffffffffffffffff021916908373ffffffffffffffffffffffffffffffffffffffff1602179055505050565b60008060009054906101000a900473ffffffffffffffffffffffffffffffffffffffff16905090565b6060600680546107ec90611a37565b80601f016020809104026020016040519081016040528092919081815260200182805461081890611a37565b80156108655780601f1061083a57610100808354040283529160200191610865565b820191906000526020600020905b81548152906001019060200180831161084857829003601f168201915b5050505050905090565b610877611439565b600260008573ffffffffffffffffffffffffffffffffffffffff1673ffffffffffffffffffffffffffffffffffffffff16815260200190815260200160002060008473ffffffffffffffffffffffffffffffffffffffff1673ffffffffffffffffffffffffffffffffffffffff16815260200190815260200160002054811115610936576040517f08c379a000000000000000000000000000000000000000000000000000000000815260040161092d90611bcb565b60405180910390fd5b610941848383611138565b61095584848361095090611beb565b610d9f565b5050505050565b6000610966611439565b81600160008573ffffffffffffffffffffffffffffffffffffffff1673ffffffffffffffffffffffffffffffffffffffff1681526020019081526020016000205410156109e8576040517f08c379a00000000000000000000000000000000000000000000000000000000081526004016109df90611c7f565b60405180910390fd5b600073ffffffffffffffffffffffffffffffffffffffff168373ffffffffffffffffffffffffffffffffffffffff1603610a57576040517f08c379a0000000000000000000000000000000000000000000000000000000008152600401610a4e90611ab4565b60405180910390fd5b81600160008573ffffffffffffffffffffffffffffffffffffffff1673ffffffffffffffffffffffffffffffffffffffff1681526020019081526020016000206000828254610aa69190611c9f565b925050819055508160046000828254610abf9190611c9f565b92505081905550600073ffffffffffffffffffffffffffffffffffffffff168373ffffffffffffffffffffffffffffffffffffffff167fddf252ad1be2c89b69c2b068fc378daa952ba7f163c4a11628f55a4df523b3ef84604051610b24919061175c565b60405180910390a36001905092915050565b610b3e611439565b600073ffffffffffffffffffffffffffffffffffffffff168273ffffffffffffffffffffffffffffffffffffffff1603610bad576040517f08c379a0000000000000000000000000000000000000000000000000000000008152600401610ba490611ab4565b60405180910390fd5b600073ffffffffffffffffffffffffffffffffffffffff168373ffffffffffffffffffffffffffffffffffffffff1603610c1c576040517f08c379a0000000000000000000000000000000000000000000000000000000008152600401610c1390611ab4565b60405180910390fd5b80600260008573ffffffffffffffffffffffffffffffffffffffff1673ffffffffffffffffffffffffffffffffffffffff16815260200190815260200160002060008473ffffffffffffffffffffffffffffffffffffffff1673ffffffffffffffffffffffffffffffffffffffff168152602001908152602001600020819055508173ffffffffffffffffffffffffffffffffffffffff168373ffffffffffffffffffffffffffffffffffffffff167f8c5be1e5ebec7d5bd14f71427d1e84f3dd0314c0f7b2291e5b200ac8c7c3b925600260008773ffffffffffffffffffffffffffffffffffffffff1673ffffffffffffffffffffffffffffffffffffffff16815260200190815260200160002060008673ffffffffffffffffffffffffffffffffffffffff1673ffffffffffffffffffffffffffffffffffffffff16815260200190815260200160002054604051610d76919061175c565b60405180910390a3505050565b600080339050610d94818585611138565b600191505092915050565b6000610da9611439565b600073ffffffffffffffffffffffffffffffffffffffff168373ffffffffffffffffffffffffffffffffffffffff1603610e18576040517f08c379a0000000000000000000000000000000000000000000000000000000008152600401610e0f90611ab4565b60405180910390fd5b600073ffffffffffffffffffffffffffffffffffffffff168473ffffffffffffffffffffffffffffffffffffffff1603610e87576040517f08c379a0000000000000000000000000000000000000000000000000000000008152600401610e7e90611ab4565b60405180910390fd5b6000821315610f285781600260008673ffffffffffffffffffffffffffffffffffffffff1673ffffffffffffffffffffffffffffffffffffffff16815260200190815260200160002060008573ffffffffffffffffffffffffffffffffffffffff1673ffffffffffffffffffffffffffffffffffffffff1681526020019081526020016000206000828254610f1c9190611b03565b92505081905550610fc5565b81610f3290611beb565b600260008673ffffffffffffffffffffffffffffffffffffffff1673ffffffffffffffffffffffffffffffffffffffff16815260200190815260200160002060008573ffffffffffffffffffffffffffffffffffffffff1673ffffffffffffffffffffffffffffffffffffffff1681526020019081526020016000206000828254610fbd9190611c9f565b925050819055505b8273ffffffffffffffffffffffffffffffffffffffff168473ffffffffffffffffffffffffffffffffffffffff167f8c5be1e5ebec7d5bd14f71427d1e84f3dd0314c0f7b2291e5b200ac8c7c3b925600260008873ffffffffffffffffffffffffffffffffffffffff1673ffffffffffffffffffffffffffffffffffffffff16815260200190815260200160002060008773ffffffffffffffffffffffffffffffffffffffff1673ffffffffffffffffffffffffffffffffffffffff1681526020019081526020016000205460405161109e919061175c565b60405180910390a3600190509392505050565b6000600260008473ffffffffffffffffffffffffffffffffffffffff1673ffffffffffffffffffffffffffffffffffffffff16815260200190815260200160002060008373ffffffffffffffffffffffffffffffffffffffff1673ffffffffffffffffffffffffffffffffffffffff16815260200190815260200160002054905092915050565b611140611439565b600160008473ffffffffffffffffffffffffffffffffffffffff1673ffffffffffffffffffffffffffffffffffffffff168152602001908152602001600020548111156111c2576040517f08c379a00000000000000000000000000000000000000000000000000000000081526004016111b990611d1f565b60405180910390fd5b600073ffffffffffffffffffffffffffffffffffffffff168273ffffffffffffffffffffffffffffffffffffffff1603611231576040517f08c379a000000000000000000000000000000000000000000000000000000000815260040161122890611db1565b60405180910390fd5b600073ffffffffffffffffffffffffffffffffffffffff168373ffffffffffffffffffffffffffffffffffffffff16036112a0576040517f08c379a000000000000000000000000000000000000000000000000000000000815260040161129790611e43565b60405180910390fd5b80600160008573ffffffffffffffffffffffffffffffffffffffff1673ffffffffffffffffffffffffffffffffffffffff16815260200190815260200160002060008282546112ef9190611c9f565b9250508190555080600160008473ffffffffffffffffffffffffffffffffffffffff1673ffffffffffffffffffffffffffffffffffffffff16815260200190815260200160002060008282546113459190611b03565b925050819055508173ffffffffffffffffffffffffffffffffffffffff168373ffffffffffffffffffffffffffffffffffffffff167fddf252ad1be2c89b69c2b068fc378daa952ba7f163c4a11628f55a4df523b3ef836040516113a9919061175c565b60405180910390a3505050565b6113be611439565b600073ffffffffffffffffffffffffffffffffffffffff168173ffffffffffffffffffffffffffffffffffffffff160361142d576040517f08c379a000000000000000000000000000000000000000000000000000000000815260040161142490611ed5565b60405180910390fd5b611436816114b7565b50565b61144161157b565b73ffffffffffffffffffffffffffffffffffffffff1661145f6107b4565b73ffffffffffffffffffffffffffffffffffffffff16146114b5576040517f08c379a00000000000000000000000000000000000000000000000000000000081526004016114ac90611f41565b60405180910390fd5b565b60008060009054906101000a900473ffffffffffffffffffffffffffffffffffffffff169050816000806101000a81548173ffffffffffffffffffffffffffffffffffffffff021916908373ffffffffffffffffffffffffffffffffffffffff1602179055508173ffffffffffffffffffffffffffffffffffffffff168173ffffffffffffffffffffffffffffffffffffffff167f8be0079c531659141344cd1fd0a4f28419497f9722a3daafe3b4186f6b6457e060405160405180910390a35050565b600033905090565b600081519050919050565b600082825260208201905092915050565b60005b838110156115bd5780820151818401526020810190506115a2565b838111156115cc576000848401525b50505050565b6000601f19601f8301169050919050565b60006115ee82611583565b6115f8818561158e565b935061160881856020860161159f565b611611816115d2565b840191505092915050565b6000602082019050818103600083015261163681846115e3565b905092915050565b600080fd5b600073ffffffffffffffffffffffffffffffffffffffff82169050919050565b600061166e82611643565b9050919050565b61167e81611663565b811461168957600080fd5b50565b60008135905061169b81611675565b92915050565b6000819050919050565b6116b4816116a1565b81146116bf57600080fd5b50565b6000813590506116d1816116ab565b92915050565b600080604083850312156116ee576116ed61163e565b5b60006116fc8582860161168c565b925050602061170d858286016116c2565b9150509250929050565b60008115159050919050565b61172c81611717565b82525050565b60006020820190506117476000830184611723565b92915050565b611756816116a1565b82525050565b6000602082019050611771600083018461174d565b92915050565b6000806000606084860312156117905761178f61163e565b5b600061179e8682870161168c565b93505060206117af8682870161168c565b92505060406117c0868287016116c2565b9150509250925092565b600060ff82169050919050565b6117e0816117ca565b82525050565b60006020820190506117fb60008301846117d7565b92915050565b6000602082840312156118175761181661163e565b5b6000611825848285016116c2565b91505092915050565b61183781611663565b82525050565b6000602082019050611852600083018461182e565b92915050565b6000806000606084860312156118715761187061163e565b5b600061187f868287016116c2565b93505060206118908682870161168c565b92505060406118a1868287016116c2565b9150509250925092565b6000602082840312156118c1576118c061163e565b5b60006118cf8482850161168c565b91505092915050565b600080600080608085870312156118f2576118f161163e565b5b60006119008782880161168c565b94505060206119118782880161168c565b93505060406119228782880161168c565b9250506060611933878288016116c2565b91505092959194509250565b6000819050919050565b6119528161193f565b811461195d57600080fd5b50565b60008135905061196f81611949565b92915050565b60008060006060848603121561198e5761198d61163e565b5b600061199c8682870161168c565b93505060206119ad8682870161168c565b92505060406119be86828701611960565b9150509250925092565b600080604083850312156119df576119de61163e565b5b60006119ed8582860161168c565b92505060206119fe8582860161168c565b9150509250929050565b7f4e487b7100000000000000000000000000000000000000000000000000000000600052602260045260246000fd5b60006002820490506001821680611a4f57607f821691505b602082108103611a6257611a61611a08565b5b50919050565b7f4e756c6c2061646472657373206e6f742061636365707461626c650000000000600082015250565b6000611a9e601b8361158e565b9150611aa982611a68565b602082019050919050565b60006020820190508181036000830152611acd81611a91565b9050919050565b7f4e487b7100000000000000000000000000000000000000000000000000000000600052601160045260246000fd5b6000611b0e826116a1565b9150611b19836116a1565b9250827fffffffffffffffffffffffffffffffffffffffffffffffffffffffffffffffff03821115611b4e57611b4d611ad4565b5b828201905092915050565b7f596f7520617265206e6f7420616c6c6f77656420746f207370656e642074686560008201527f736520636f696e73000000000000000000000000000000000000000000000000602082015250565b6000611bb560288361158e565b9150611bc082611b59565b604082019050919050565b60006020820190508181036000830152611be481611ba8565b9050919050565b6000611bf68261193f565b91507f80000000000000000000000000000000000000000000000000000000000000008203611c2857611c27611ad4565b5b816000039050919050565b7f4e6f7420656e6f75676820636f696e7320746f206275726e0000000000000000600082015250565b6000611c6960188361158e565b9150611c7482611c33565b602082019050919050565b60006020820190508181036000830152611c9881611c5c565b9050919050565b6000611caa826116a1565b9150611cb5836116a1565b925082821015611cc857611cc7611ad4565b5b828203905092915050565b7f496e73756666696369656e742062616c616e6365000000000000000000000000600082015250565b6000611d0960148361158e565b9150611d1482611cd3565b602082019050919050565b60006020820190508181036000830152611d3881611cfc565b9050919050565b7f596f7520617265206e6f7420616c6c6f77656420746f206275726e20746f6b6560008201527f6e73000000000000000000000000000000000000000000000000000000000000602082015250565b6000611d9b60228361158e565b9150611da682611d3f565b604082019050919050565b60006020820190508181036000830152611dca81611d8e565b9050919050565b7f596f7520617265206e6f7420616c6c6f77656420746f206d696e7420746f6b6560008201527f6e73000000000000000000000000000000000000000000000000000000000000602082015250565b6000611e2d60228361158e565b9150611e3882611dd1565b604082019050919050565b60006020820190508181036000830152611e5c81611e20565b9050919050565b7f4f776e61626c653a206e6577206f776e657220697320746865207a65726f206160008201527f6464726573730000000000000000000000000000000000000000000000000000602082015250565b6000611ebf60268361158e565b9150611eca82611e63565b604082019050919050565b60006020820190508181036000830152611eee81611eb2565b9050919050565b7f4f776e61626c653a2063616c6c6572206973206e6f7420746865206f776e6572600082015250565b6000611f2b60208361158e565b9150611f3682611ef5565b602082019050919050565b60006020820190508181036000830152611f5a81611f1e565b905091905056fea264697066735822122036f289ee7b9297538a28e594d891c175374e7e57a43ed1ee5443dc7a2cd89ace64736f6c634300080e0033",
  "immutableReferences": {},
  "source": "// SPDX-License-Identifier: UNLICENSED\npragma solidity >=0.4.25 <0.8.15;\n\nimport \"@openzeppelin/contracts/access/Ownable.sol\";\n\n/*\n* @desc A coin system implementation following the ERC20 standard.\n*/\n\ncontract thesis is Ownable{\n\n    //Declarations of the variables used in the contract.\n    mapping (address => uint256) private _balance;\n    mapping (address => mapping (address => uint256)) private _allowed;\n    mapping (uint256 => address) private device;\n    uint256 private _totalCoins;\n    string private _name;\n    string private _symbol;\n\n    //Declarations of the events used in the contract.\n    event Transfer(address indexed _from, address indexed _to, uint256 _value);\n    event Approval(address indexed _owner, address indexed _spender, uint256 _value);\n\n    /*\n    * @desc The constructor function called just once.\n    */\n\n    constructor(string memory givenName, string memory givenSymbol) public{\n\n        _name = givenName;\n        _symbol = givenSymbol;\n    \n    }\n\n    /*\n    * @desc Returns the name of the coin.\n    * @return The name of the coin.\n    */\n\n    function name() public view returns (string memory){\n        return _name;\n    }\n\n    /*\n    * @desc Returns the symbol of the coin.\n    * @return The symbol of the coin.\n    */\n\n    function symbol() public view returns (string memory){\n        return _symbol;\n    }\n\n    /*\n    * @desc Returns the number of decimals of the coin.\n    * @return Fixed number of 18 decimals.\n    */\n\n    function decimals() public view returns (uint8){\n        return 18;\n    }\n\n\n    /*\n    * @desc Returns the total supply of coins.\n    * @return The total amount of coins.\n    */\n\n    function totalSupply() public view returns (uint256){\n\n        return _totalCoins;\n\n    } \n\n    /*\n    * @desc Returns the balance of the specified address.\n    * @param owner The address whose balance is needed.\n    * @return The balance of the specified address.\n    */\n\n    function balanceOf(address owner) public view returns (uint256){\n\n        return _balance[owner];\n\n    }\n\n    /*\n    * @desc Returns the amout of coins an address is allowed to spend from another address' balance.\n    * @param owner The address whose coins are allowed to be spent.\n    * @param spender The address which is allowed to spend the coins.\n    * @return The number of coins allowed to be spent.\n    */\n\n    function allowance(address owner, address spender) public view returns (uint256){\n\n        return _allowed[owner][spender];\n\n    }\n\n    /*\n    * @desc Sends an amount of coins from the caller's balance to another address. \n    * @param to The address where the coins will be transfered.\n    * @param value The amount of coins that will be transfered.\n    * @return Returns true if the execution is successful and false otherwise.\n    */\n    \n    function transfer(address to, uint256 value) public returns (bool){\n\n        address from = msg.sender;\n        executeTransfer(from, to, value);\n        return true;\n\n    }\n\n    /*\n    * @desc Sends an amount of coins from an address' balance to another address on behalf of the caller.\n    * @param from The address whose funds will be transfered.\n    * @param to The address where the coins will be transfered.\n    * @param value The amount of coins that will be transfered.\n    * @return Returns true if the execution is successful and false otherwise.\n    */\n    \n    function transferFrom(address from, address to, uint256 value) public returns (bool){\n\n        address spender = msg.sender; \n        executeTransferFrom(from, spender, to, value);\n        return true;\n\n    }\n\n    /*\n    * @desc Allows an address to spend an amount of the caller's coins. \n    * @param spender The address which is allowed to spend the other address' funds.\n    * @param value The amount of the owner's coins the spender is allowed to spend.\n    * @return Returns true if the execution is successful and false otherwise.\n    */\n\n    function approve(address spender, uint256 value) public returns (bool){\n\n        address owner = msg.sender;\n        executeApprove(owner, spender, value);\n        return true;\n\n    }\n\n    /*\n    * @desc Adjusts the amount of an address' funds an other address is allowed to spend. \n    * @param owner The addres whose funds are allowed to be spent.\n    * @param spender The address whose allowance to spend another address' funds is adjusted.\n    * @param value The amount by which the allowance will be adjusted.\n    * @return Returns true if the execution is successful and false otherwise.\n    */\n\n    function adjustAllowed(address owner, address spender, int value) public onlyOwner returns (bool){\n\n        require (spender != address(0), \"Null address not acceptable\");\n        require (owner != address(0), \"Null address not acceptable\");\n\n        //If the amount is positive the allowance is increased. It is decreased otherwise. \n        if (value > 0){\n            _allowed[owner][spender] += uint256(value);\n        }else{\n            _allowed[owner][spender] -= uint256(-value);\n        }\n        \n        emit Approval(owner, spender, _allowed[owner][spender]);\n        return true;\n\n    }\n\n    /*\n    * @desc Creates an amount of new coins and gives them to an address.\n    * @param target The address whose the new coins will be.\n    * @param value The amount of coins that will be created as a uint256.\n    * @return Returns true if the execution is successful and false otherwise.\n    */\n    \n    function mint(address target, uint256 value) public onlyOwner returns (bool) {\n\n        require (target != address(0), \"Null address not acceptable\");\n\n        _balance[target] += value;\n        _totalCoins += value;\n\n        emit Transfer(address(0), target, value);\n        return true;\n\n    }\n\n    /*\n    * @desc Destroys an amount of coins from an address' balance.\n    * @param from The address whose coins will be destroyed.\n    * @param value The amount of coins that will be destroyed.\n    * @return Returns true if the execution is successful and false otherwise.\n    */\n    \n    function burn(address from, uint256 value) public onlyOwner returns (bool){\n\n        require (_balance[from] >= value, \"Not enough coins to burn\");\n        require (from != address(0), \"Null address not acceptable\");\n\n        _balance[from] -= value;\n        _totalCoins -= value;\n\n        emit Transfer(from, address(0), value);\n        return true;\n\n    }\n\n    /*\n    * @desc Executes the transfer of coins from an address to another.\n    * @param from The address whose coins will be transfered.\n    * @param to The address that will receive the coins.\n    * @param value The amount of coins that will be transfered.\n    */\n\n    function executeTransfer(address from, address to, uint256 value) public onlyOwner {\n\n        require (value <= _balance[from], \"Insufficient balance\");\n        require (to != address(0), \"You are not allowed to burn tokens\");\n        require (from != address(0), \"You are not allowed to mint tokens\");\n\n        _balance[from] -= value;\n        _balance[to] += value;\n\n        emit Transfer(from, to, value);\n\n    }\n\n    /*\n    * @desc Executes the transfer of coins from an address to another on behalf of a third address.\n    * @param owner The address whose coins will be transfered.\n    * @param spender The address on behalf whose the coins will be transfered.\n    * @param to The address that will receive the coins.\n    * @param value The amount of coins that will be transfered.\n    */ \n\n    function executeTransferFrom(address owner, address spender, address to, uint256 value) public onlyOwner {\n\n        require (value <= _allowed[owner][spender], \"You are not allowed to spend these coins\");\n\n        executeTransfer(owner, to, value);\n\n        adjustAllowed(owner, spender, -int(value));\n\n    }\n\n    /*\n    * @desc Executes the allowance of an address to spend another address' coins.\n    * @param owner The address whose coins will be allowed to be spent.\n    * @param spender The address that is allowed to spend the coins.\n    * @param value The amount of coins that are allowed to be transfered.\n    */\n\n    function executeApprove(address owner, address spender, uint256 value) public onlyOwner {\n\n        require (spender != address(0), \"Null address not acceptable\");\n        require (owner != address(0), \"Null address not acceptable\");\n\n        _allowed[owner][spender] = value;\n\n        emit Approval(owner, spender, _allowed[owner][spender]);\n\n    }\n\n    /*\n    *\n    *\n    *\n    */\n\n    function registeredDevices(uint256 deviceID) public view returns (address) {\n\n        return device[deviceID];\n        \n    }\n\n    /*\n    *\n    *\n    *\n    *\n    */\n\n    function registerDevice(address owner, uint256 deviceID) public onlyOwner {\n\n        device[deviceID] = owner;\n\n    }\n\n    /*\n    *\n    *\n    *\n    *\n    */\n\n    function transferFromDeviceID(uint256 deviceID, address from, uint256 amount) public onlyOwner {\n\n        address to = device[deviceID];\n\n        executeTransfer(from, to, amount);\n\n    }\n\n}",
  "sourcePath": "/home/synodinos/Desktop/new/contracts/thesis.sol",
  "compiler": {
    "name": "solc",
    "version": "0.8.14+commit.80d49f37.Emscripten.clang"
  },
  "schemaVersion": "3.4.9",
  "updatedAt": "2022-10-24T20:29:25.790Z",
  "networkType": "ethereum",
  "devdoc": {
    "kind": "dev",
    "methods": {
      "owner()": {
        "details": "Returns the address of the current owner."
      },
      "renounceOwnership()": {
        "details": "Leaves the contract without owner. It will not be possible to call `onlyOwner` functions anymore. Can only be called by the current owner. NOTE: Renouncing ownership will leave the contract without an owner, thereby removing any functionality that is only available to the owner."
      },
      "transferOwnership(address)": {
        "details": "Transfers ownership of the contract to a new account (`newOwner`). Can only be called by the current owner."
      }
    },
    "version": 1
  },
  "userdoc": {
    "kind": "user",
    "methods": {},
    "version": 1
  }
}